{
  "contractName": "Crowdfunding",
  "abi": [
    {
      "inputs": [
        {
          "internalType": "uint256",
          "name": "",
          "type": "uint256"
        }
      ],
      "name": "campaigns",
      "outputs": [
        {
          "internalType": "address payable",
          "name": "owner",
          "type": "address"
        },
        {
          "internalType": "uint256",
          "name": "goal",
          "type": "uint256"
        },
        {
          "internalType": "uint256",
          "name": "balance",
          "type": "uint256"
        }
      ],
      "stateMutability": "view",
      "type": "function",
      "constant": true
    },
    {
      "inputs": [
        {
          "internalType": "uint256",
          "name": "_goal",
          "type": "uint256"
        }
      ],
      "name": "launchCampaign",
      "outputs": [
        {
          "internalType": "uint256",
          "name": "",
          "type": "uint256"
        }
      ],
      "stateMutability": "nonpayable",
      "type": "function"
    },
    {
      "inputs": [],
      "name": "numCampaigns",
      "outputs": [
        {
          "internalType": "uint256",
          "name": "",
          "type": "uint256"
        }
      ],
      "stateMutability": "view",
      "type": "function",
      "constant": true
    },
    {
      "inputs": [
        {
          "internalType": "uint256",
          "name": "_campaignId",
          "type": "uint256"
        }
      ],
      "name": "getGoal",
      "outputs": [
        {
          "internalType": "uint256",
          "name": "",
          "type": "uint256"
        }
      ],
      "stateMutability": "view",
      "type": "function",
      "constant": true
    },
    {
      "inputs": [
        {
          "internalType": "uint256",
          "name": "_campaignId",
          "type": "uint256"
        }
      ],
      "name": "getBalance",
      "outputs": [
        {
          "internalType": "uint256",
          "name": "",
          "type": "uint256"
        }
      ],
      "stateMutability": "view",
      "type": "function",
      "constant": true
    },
    {
      "inputs": [
        {
          "internalType": "uint256",
          "name": "_campaignId",
          "type": "uint256"
        }
      ],
      "name": "pledge",
      "outputs": [],
      "stateMutability": "payable",
      "type": "function",
      "payable": true
    },
    {
      "inputs": [
        {
          "internalType": "uint256",
          "name": "_campaignId",
          "type": "uint256"
        }
      ],
      "name": "claim",
      "outputs": [],
      "stateMutability": "nonpayable",
      "type": "function"
    }
  ],
  "bytecode": "0x608060405234801561001057600080fd5b506107ff806100206000396000f3fe6080604052600436106100705760003560e01c80632c0f7b6f1161004e5780632c0f7b6f1461012e578063379607f5146101595780637326c9c014610182578063df6ed6cb1461019e57610070565b8063141961bc146100755780631e010439146100b45780632664edcd146100f1575b600080fd5b34801561008157600080fd5b5061009c60048036038101906100979190610526565b6101db565b6040516100ab939291906105b3565b60405180910390f35b3480156100c057600080fd5b506100db60048036038101906100d69190610526565b610225565b6040516100e8919061062a565b60405180910390f35b3480156100fd57600080fd5b5061011860048036038101906101139190610526565b610245565b604051610125919061062a565b60405180910390f35b34801561013a57600080fd5b506101436102d0565b604051610150919061062a565b60405180910390f35b34801561016557600080fd5b50610180600480360381019061017b9190610526565b6102d6565b005b61019c60048036038101906101979190610526565b610449565b005b3480156101aa57600080fd5b506101c560048036038101906101c09190610526565b6104f1565b6040516101d2919061062a565b60405180910390f35b60016020528060005260406000206000915090508060000160009054906101000a900473ffffffffffffffffffffffffffffffffffffffff16908060010154908060020154905083565b600060016000838152602001908152602001600020600201549050919050565b60008060016000805481526020019081526020016000209050338160000160006101000a81548173ffffffffffffffffffffffffffffffffffffffff021916908373ffffffffffffffffffffffffffffffffffffffff1602179055508281600101819055506000816002018190555060008081546102c2906106e8565b919050819055915050919050565b60005481565b6001600082815260200190815260200160002060000160009054906101000a900473ffffffffffffffffffffffffffffffffffffffff1673ffffffffffffffffffffffffffffffffffffffff163373ffffffffffffffffffffffffffffffffffffffff161461037a576040517f08c379a0000000000000000000000000000000000000000000000000000000008152600401610371906105ea565b60405180910390fd5b6001600082815260200190815260200160002060010154600160008381526020019081526020016000206002015410156103e9576040517f08c379a00000000000000000000000000000000000000000000000000000000081526004016103e09061060a565b60405180910390fd5b3373ffffffffffffffffffffffffffffffffffffffff166108fc60016000848152602001908152602001600020600201549081150290604051600060405180830381858888f19350505050158015610445573d6000803e3d6000fd5b5050565b600034141561045757600080fd5b3460016000838152602001908152602001600020600201600082825461047d9190610656565b92505081905550346001600083815260200190815260200160002060030160003373ffffffffffffffffffffffffffffffffffffffff1673ffffffffffffffffffffffffffffffffffffffff16815260200190815260200160002060008282546104e79190610656565b9250508190555050565b600060016000838152602001908152602001600020600101549050919050565b600081359050610520816107b2565b92915050565b60006020828403121561053857600080fd5b600061054684828501610511565b91505092915050565b610558816106ac565b82525050565b600061056b601e83610645565b915061057682610760565b602082019050919050565b600061058e601883610645565b915061059982610789565b602082019050919050565b6105ad816106de565b82525050565b60006060820190506105c8600083018661054f565b6105d560208301856105a4565b6105e260408301846105a4565b949350505050565b600060208201905081810360008301526106038161055e565b9050919050565b6000602082019050818103600083015261062381610581565b9050919050565b600060208201905061063f60008301846105a4565b92915050565b600082825260208201905092915050565b6000610661826106de565b915061066c836106de565b9250827fffffffffffffffffffffffffffffffffffffffffffffffffffffffffffffffff038211156106a1576106a0610731565b5b828201905092915050565b60006106b7826106be565b9050919050565b600073ffffffffffffffffffffffffffffffffffffffff82169050919050565b6000819050919050565b60006106f3826106de565b91507fffffffffffffffffffffffffffffffffffffffffffffffffffffffffffffffff82141561072657610725610731565b5b600182019050919050565b7f4e487b7100000000000000000000000000000000000000000000000000000000600052601160045260246000fd5b7f4f6e6c79206f776e65722063616e2077697468647261772066756e64732e0000600082015250565b7f476f616c206973206e6f742079657420726561636865642e0000000000000000600082015250565b6107bb816106de565b81146107c657600080fd5b5056fea264697066735822122004ce581500241fcc5f898dc2e77a4c57ac4f39b676ca7b8147ea3e4156f3c3b964736f6c63430008030033",
  "immutableReferences": {},
  "source": "// SPDX-License-Identifier: GPL-3.0\r\n\r\npragma solidity >=0.5.0;\r\n\r\nimport \"./crowdfunding_platform.sol\";\r\n\r\ncontract Crowdfunding is CrowdfundingPlatform {\r\n    function getGoal(uint _campaignId) public view returns (uint) {\r\n        return campaigns[_campaignId].goal;\r\n    }\r\n\r\n    function getBalance(uint _campaignId) public view returns(uint) {\r\n        return campaigns[_campaignId].balance;\r\n    }\r\n\r\n    function pledge(uint _campaignId) public payable {\r\n        require(msg.value != 0);\r\n        campaigns[_campaignId].balance += msg.value;\r\n        campaigns[_campaignId].backers[msg.sender] += msg.value;\r\n    }\r\n\r\n    function claim(uint _campaignId) public {\r\n        require(msg.sender == campaigns[_campaignId].owner, \"Only owner can withdraw funds.\");\r\n        require(campaigns[_campaignId].balance >= campaigns[_campaignId].goal, \"Goal is not yet reached.\");\r\n        \r\n        payable(msg.sender).transfer(campaigns[_campaignId].balance);\r\n    }\r\n}",
  "sourcePath": "C:/Users/plgod/src/eth-crowdfunding/solidity/contracts/crowdfunding.sol",
  "compiler": {
    "name": "solc",
    "version": "0.8.3+commit.8d00100c.Emscripten.clang"
  },
  "schemaVersion": "3.3.4",
  "updatedAt": "2021-04-05T21:11:36.888Z",
  "networkType": "ethereum",
  "devdoc": {
    "kind": "dev",
    "methods": {},
    "version": 1
  },
  "userdoc": {
    "kind": "user",
    "methods": {},
    "version": 1
  }
}