{
  "contractName": "CrowdfundingPlatform",
  "abi": [
    {
      "inputs": [
        {
          "internalType": "uint256",
          "name": "",
          "type": "uint256"
        }
      ],
      "name": "campaigns",
      "outputs": [
        {
          "internalType": "address payable",
          "name": "owner",
          "type": "address"
        },
        {
          "internalType": "uint256",
          "name": "goal",
          "type": "uint256"
        },
        {
          "internalType": "uint256",
          "name": "balance",
          "type": "uint256"
        }
      ],
      "stateMutability": "view",
      "type": "function"
    },
    {
      "inputs": [],
      "name": "numCampaigns",
      "outputs": [
        {
          "internalType": "uint256",
          "name": "",
          "type": "uint256"
        }
      ],
      "stateMutability": "view",
      "type": "function"
    },
    {
      "inputs": [
        {
          "internalType": "uint256",
          "name": "_goal",
          "type": "uint256"
        }
      ],
      "name": "launchCampaign",
      "outputs": [
        {
          "internalType": "uint256",
          "name": "",
          "type": "uint256"
        }
      ],
      "stateMutability": "nonpayable",
      "type": "function"
    }
  ],
  "bytecode": "0x608060405234801561001057600080fd5b50610350806100206000396000f3fe608060405234801561001057600080fd5b50600436106100415760003560e01c8063141961bc146100465780632664edcd146100785780632c0f7b6f146100a8575b600080fd5b610060600480360381019061005b91906101b6565b6100c6565b60405161006f939291906101fd565b60405180910390f35b610092600480360381019061008d91906101b6565b610110565b60405161009f9190610234565b60405180910390f35b6100b061019b565b6040516100bd9190610234565b60405180910390f35b60016020528060005260406000206000915090508060000160009054906101000a900473ffffffffffffffffffffffffffffffffffffffff16908060010154908060020154905083565b60008060016000805481526020019081526020016000209050338160000160006101000a81548173ffffffffffffffffffffffffffffffffffffffff021916908373ffffffffffffffffffffffffffffffffffffffff16021790555082816001018190555060008160020181905550600080815461018d9061028b565b919050819055915050919050565b60005481565b6000813590506101b081610303565b92915050565b6000602082840312156101c857600080fd5b60006101d6848285016101a1565b91505092915050565b6101e88161024f565b82525050565b6101f781610281565b82525050565b600060608201905061021260008301866101df565b61021f60208301856101ee565b61022c60408301846101ee565b949350505050565b600060208201905061024960008301846101ee565b92915050565b600061025a82610261565b9050919050565b600073ffffffffffffffffffffffffffffffffffffffff82169050919050565b6000819050919050565b600061029682610281565b91507fffffffffffffffffffffffffffffffffffffffffffffffffffffffffffffffff8214156102c9576102c86102d4565b5b600182019050919050565b7f4e487b7100000000000000000000000000000000000000000000000000000000600052601160045260246000fd5b61030c81610281565b811461031757600080fd5b5056fea2646970667358221220c3598aa9229a288c326a9fb4db5df64d8db06415631d6556ccac23a67826d9f464736f6c63430008030033",
  "immutableReferences": {},
  "source": "// SPDX-License-Identifier: GPL-3.0\r\n\r\npragma solidity >=0.5.0;\r\n\r\n/**\r\n * @title Crowdfunding Platform\r\n * @dev Crowdfunding on blockchain\r\n */\r\ncontract CrowdfundingPlatform {\r\n    enum CampaignState { Funding, Funded }\r\n\r\n    struct Campaign {\r\n        address payable owner;\r\n        uint goal;\r\n        uint balance;\r\n        mapping (address => uint) backers;\r\n    }\r\n\r\n    uint public numCampaigns;\r\n    mapping(uint => Campaign) public campaigns;\r\n\r\n    function launchCampaign(uint _goal) public returns (uint) {\r\n        numCampaigns;\r\n        Campaign storage newCampaign = campaigns[numCampaigns];\r\n        newCampaign.owner = payable(msg.sender);\r\n        newCampaign.goal = _goal;\r\n        newCampaign.balance = 0;\r\n\r\n        return ++numCampaigns;\r\n    }\r\n}\r\n",
  "sourcePath": "C:\\Users\\plgod\\src\\eth-crowdfunding\\solidity\\contracts\\crowdfunding_platform.sol",
  "compiler": {
    "name": "solc",
    "version": "0.8.3+commit.8d00100c.Emscripten.clang"
  },
  "schemaVersion": "3.3.4",
  "updatedAt": "2021-04-05T21:11:35.195Z",
  "devdoc": {
    "details": "Crowdfunding on blockchain",
    "kind": "dev",
    "methods": {},
    "title": "Crowdfunding Platform",
    "version": 1
  },
  "userdoc": {
    "kind": "user",
    "methods": {},
    "version": 1
  }
}